:03000000021A41A0
:0C1A4100787FE4F6D8FD758121021A8838
:101BD2004D50553630353020446174612052656174
:101BE200647920287769746820436F6D706C656D25
:101BF200656E746172792046696C746572290D0A8A
:101C020000413A25642C25642C2564007C473A2542
:081C1200642C25642C256400FC
:101E4600E4FDFCC3ED9FEC9E5015E4FBFA0BBB00D2
:0F1E5600010AEB646E4A70F50DBD00010C80E4CB
:011E6500225A
:10157F00121EE2121EAF121DDEC290C291C292C2A3
:10158F0093C2827FE87E03121E467BFF7A1B79D2BD
:10159F00121CCA90010A7401F0A37400F0A374BB6B
:1015AF00F0A37401F0A37400F0A374BDF0A3740151
:1015BF00F0A37400F0A374BFF0A37401F0A3740040
:1015CF00F0A374C1F0A37401F0A37400F0A374C36B
:1015DF00F0A37401F0A37400F0A374C5F07B017A3B
:1015EF000079B912169990010A74FFF0A3741CF0D8
:1015FF00A37403F09000B9E0FFA3E090010DCFF0CA
:10160F00A3EFF09000BBE0FFA3E090010FCFF0A39A
:10161F00EFF09000BDE0FFA3E0900111CFF0A3EF3A
:10162F00F07B017A0079C71209237B017A0079C711
:10163F00121CCA90010A74FFF0A3741CF0A3740E5D
:10164F00F09000BFE0FFA3E090010DCFF0A3EFF00B
:10165F009000C1E0FFA3E090010FCFF0A3EFF09057
:10166F0000C3E0FFA3E0900111CFF0A3EFF07B01E7
:10167F007A0079C71209237B017A0079C7121CCA35
:0A168F007F647E00121E460215A2C1
:051EE200D296D2972208
:0D1EC200D297D2960000C2970000C296226F
:0B1ECF00C297D2960000D297000022BC
:101D3000E4FEEEC39408748094805016EF30E702FE
:101D40008001C39297D2960000C296EF25E0FF0E65
:101D500080E0D297D2960000A2979200C296A2008D
:011D60002260
:101C9600E4FFD297FEEEC39408748094805015D268
:101CA600960000EF25E0FF3097034401FFC296003F
:101CB600000E80E1300003C38001D39297D29600D4
:031CC60000C296C3
:011CC90022F8
:101DDE00E4FD7F6B121E827D077F19121E827D0627
:101DEE007F1A121E827D187F1B121E827D187F1C89
:031DFE00021E8240
:101E8200AC07121EC27FD0121D30AF04121D30AF3C
:071E920005121D30021ECFF6
:031E24007B00FA46
:021E2700AD0705
:101E2900121EC27FD0121D30AF05121D30121EC204
:0D1E39007FD1121D30C200121C96021ECF78
:10169900900107EBF0A3EAF0A3E9F07F3B121E27C4
:1016A900EF7F3C121E24EAF9900107E0FBA3E0FA60
:1016B900A3E0C98FF01206587F3D121E27EF7F3E27
:1016C900121E24EAF990010AE0FBA3E0FAA3E0C99B
:1016D9008FF01206587F3F121E27EF7B00FA7F40DA
:1016E900121E27EAF990010DE0FBA3E0FAA3E0C975
:1016F9008FF01206587F41121E27EF7B00FA7F42B6
:10170900121E27EAF9900119E0FBA3E0FAA3E0C948
:101719008FF01206587F43121E27EF7B00FA7F4491
:10172900121E27EAF9900110E0FBA3E0FAA3E0C931
:101739008FF01206587F45121E27EF7B00FA7F466D
:10174900121E27EAF9900113E0FBA3E0FAA3E0C90E
:101759008FF01206587F47121E27EF7B00FA7F4849
:10176900121E27EAF9900116E0FBA3E0FAA3E0C9EB
:051779008FF00206588C
:101EAF00758920758DFD758BFDD28E759850D2ACCE
:031EBF00D2AF227D
:081EDA008F993099FDC2992295
:101CCA00900107EBF0A3EAF0A3E9F0900107E0FB2B
:101CDA00A3E0FAA3E0F91205D86017900107A3E47C
:101CEA0075F001120642A9F0FA1205D8FF121EDA9F
:031CFA0080D9226C
:101D610044000000000000440004000000004400A2
:051D7100080000000065
:10177E00121EE2121DDE121E997B017A0079309044
:10178E00013E1207A73C23D70A9001421207A74039
:10179E000000009001461207A7C396000090014A70
:1017AE001207A7439600007F007E007D607C4012EA
:1017BE001ACD7B017A00795890013E1207A73C237F
:1017CE00D70A9001421207A740000000900146126E
:1017DE0007A7C396000090014A1207A74396000080
:1017EE007F007E007D607C40121ACD7B017A0079ED
:1017FE008090013E1207A73CA3D70A900142120720
:10180E00A7000000009001461207A7C396000090A3
:10181E00014A1207A7439600007F007E007D807C60
:10182E0040121ACD9000181207A700000000900079
:10183E001C1207A7000000009000201207A700004E
:10184E0000009000A81207A700000000E49000AC72
:02185E00F02276
:101C1A0090001812079B90018CE0FCA3E0FDA3E062
:101C2A00FEA3E0FF90001C12079B900190E0FCA32A
:101C3A00E0FDA3E0FEA3E0FF90002012079B9001C5
:101C4A0094E0FCA3E0FDA3E0FEA3E0FF9000A8025D
:021C5A00079BE6
:101006009001841207A73C23D70A90010A7401F0C5
:10101600A37401F0A37478F0A37401F0A37401F033
:10102600A3747AF0A37401F0A37401F0A3747CF0A6
:10103600A37401F0A37401F0A3747EF0A37401F00D
:10104600A37401F0A37480F0A37401F0A37401F0FB
:10105600A37482F07B017A01797612169990017851
:10106600E0FCA3E0FDEC12031FC004C005C006C0EF
:101076000790017AE0FCA3E0FDEC12031F9001B19A
:1010860012079BD007D006D005D00412190C7B336B
:101096007A33796578421200FB90001412079B9010
:1010A600017AE0FCA3E0FDFFAE04120630AA06AB0F
:1010B60007900178E0FCA3E0FDFFAE04120630EFD6
:1010C6002BFDEE3AFC12031F1218649001B11207B1
:1010D6009B900176E0FEA3E0FFC3E49FFDE49EFC47
:1010E60012031F12190C7B337A337965784212008A
:1010F600FB90001012079B90017CE0FCA3E0FDEC46
:1011060012031F7B337A33798378411202049000ED
:10111600B112079B90017EE0FCA3E0FDEC12031FD9
:101126007B337A33798378411202049000AD12073B
:101136009B900180E0FCA3E0FDEC12031F7B337A59
:10114600337983784112020490000C12079B9000B9
:10115600B1E0FCA3E0FDA3E0FEA3E0FF9001521284
:10116600079B900184E0FCA3E0FDA3E0FEA3E0FF63
:1011760090015612079B900000E0FCA3E0FDA3E05F
:10118600FEA3E0FF90015A12079B9000141219A9C2
:1011960090002412079B9000ADE0FCA3E0FDA3E0C5
:1011A600FEA3E0FF90015212079B900184E0FCA38E
:1011B600E0FDA3E0FEA3E0FF90015612079B90001E
:1011C60004E0FCA3E0FDA3E0FEA3E0FF90015A12B9
:1011D600079B9000101219A990002812079B9000F7
:1011E6002CE0F8A3E0F9A3E0FAA3E0FBC000C001FD
:1011F600C002C003900184E0FCA3E0FDA3E0FEA3CF
:10120600E0FF90000CE0F8A3E0F9A3E0FAA3E0FB0E
:101216001200FBD003D002D001D00012000A9000C9
:101226002C12079B900024E0FCA3E0FDA3E0FEA3A4
:10123600E0FF90000012079B900028E0FCA3E0FD71
:10124600A3E0FEA3E0FF90000412079B90002CE0B1
:10125600FCA3E0FDA3E0FEA3E0FF90000802079BCD
:0B19A900E0FCA3E0FDA3E0FEA3E0FFD4
:0619B40090014E12079B9A
:1019BA0090015E1207A73F7AE148900156E0FCA326
:1019CA00E0FDA3E0FEA3E0FF900152E0F8A3E0F9F6
:1019DA00A3E0FAA3E0FB1200FB90015AE0F8A3E0AF
:1019EA00F9A3E0FAA3E0FB12000A90015EE0F8A373
:1019FA00E0F9A3E0FAA3E0FB1200FBC004C005C0B3
:101A0A0006C00790015EE0F8A3E0F9A3E0FAA3E0BC
:101A1A00FBE4FFFE7D807C3F12000690014EE0F859
:101A2A00A3E0F9A3E0FAA3E0FB1200FBD003D00283
:071A3A00D001D00002000AF8
:100D41009000ACE0701DFDFC7F01121C5CE4FDFC19
:100D51007F02121C5CE4FDFC7F03121C5CE4FDFCC1
:100D61000210007B017A007930900024E0FCA3E0BE
:100D7100FDA3E0FEA3E0FF90019F12079B900018E6
:100D8100E0FCA3E0FDA3E0FEA3E0FF1212669001E8
:100D91006212079B7B017A007958900028E0FCA33E
:100DA100E0FDA3E0FEA3E0FF90019F12079B9000EE
:100DB1001CE0FCA3E0FDA3E0FEA3E0FF121266909D
:100DC100016612079B7B017A00798090002CE0FC80
:100DD100A3E0FDA3E0FEA3E0FF90019F12079B901B
:100DE1000020E0FCA3E0FDA3E0FEA3E0FF121266F9
:100DF10090016A12079BE4FFFE7D207C419000A8D0
:100E0100E0F8A3E0F9A3E0FAA3E0FB1200FB9000F5
:100E1100B512079B900166E0FCA3E0FDA3E0FEA3F1
:100E2100E0FF9000B5E0F8A3E0F9A3E0FAA3E0FB4E
:100E310012000A900162E0F8A3E0F9A3E0FAA3E04E
:100E4100FB12000690016AE0F8A3E0F9A3E0FAA31F
:100E5100E0FB12000612035890016EEEF0A3EFF0D2
:100E6100900166E0FCA3E0FDA3E0FEA3E0FF90009B
:100E7100B5E0F8A3E0F9A3E0FAA3E0FB12000A90C1
:100E81000162E0F8A3E0F9A3E0FAA3E0FB12000A93
:100E910090016AE0F8A3E0F9A3E0FAA3E0FB1200F5
:100EA1000A120358900170EEF0A3EFF0900166E092
:100EB100F8A3E0F9A3E0FAA3E0FB9000B5E0FCA3FE
:100EC100E0FDA3E0FEA3E0FF120006900162E0F85E
:100ED100A3E0F9A3E0FAA3E0FB12000A90016AE0A3
:100EE100F8A3E0F9A3E0FAA3E0FB1200061203580D
:100EF100900172EEF0A3EFF0900166E0F8A3E0F943
:100F0100A3E0FAA3E0FB9000B5E0FCA3E0FDA3E0C1
:100F1100FEA3E0FF120006900162E0F8A3E0F9A34E
:100F2100E0FAA3E0FB12000690016AE0F8A3E0F901
:100F3100A3E0FAA3E0FB12000A120358900174EE39
:100F4100F0A3EFF0C390016EE094005004E4F0A32D
:100F5100F0C3900170E094005004E4F0A3F0C3905A
:100F61000172E094005004E4F0A3F0C3900174E036
:100F710094005004E4F0A3F0D390016FE094E89062
:100F8100016EE0940340077403F0A374E8F0D3907A
:100F91000171E094E8900170E0940340077403F05C
:100FA100A374E8F0D3900173E094E8900172E094A7
:100FB1000340077403F0A374E8F0D3900175E09443
:100FC100E8900174E0940340077403F0A374E8F01F
:100FD10090016EE0FCA3E0FD7F01121C5C900170AA
:100FE100E0FCA3E0FD7F02121C5C900172E0FCA317
:100FF100E0FD7F03121C5C900174E0FCA3E0FD7F27
:0410010004121C5C5D
:0110050022C8
:101D90009000ACEFF0701FFDFC7F01121C5CE4FDB5
:101DA000FC7F02121C5CE4FDFC7F03121C5CE4FD62
:071DB000FC7F04121C5C2201
:101E0100E49000ACF0121E667B017A007930121C5E
:101E1100FD7B017A007958121CFD7B017A007980E3
:031E2100021CFDA3
:101D76004201A300004201A500004201A700004263
:091D860001A900004201AB0000BC
:101E9900C290C291C292C293438901758CFF758A1F
:061EA900D0D2A9D28C2268
:101C5C00D3ED94E8EC940340047C037DE8EF24FE80
:101C6C00600F1460111460172403701D9001A5807F
:101C7C00089001A780039001A9ECF0A3EDF022AF2E
:0A1C8C00059001ABECF0A3EFF0228D
:101E6600E49001A5F0A3F0A3F0A3F0A3F0A3F0A3E0
:0C1E7600F0A3F0C290C291C292C293226D
:101B52009001A4E004F070069001A3E004F0C390A9
:101B620001A4E094E89001A3E094034004E4F0A30C
:101B7200F09001A5E0FEA3E0FF9001A3E0FCA3E04A
:101B8200FDC39FEC9E50028001C392909001A7E09A
:101B9200FEA3E0FFC3ED9FEC9E50028001C3929131
:101BA2009001A9E0FEA3E0FF9001A3E0FCA3E0FD09
:101BB200C39FEC9E50028001C392929001ABE0FE63
:101BC200A3E0FFC3ED9FEC9E50028001C3929322DB
:101ACD001206D590013EE0FCA3E0FDA3E0FEA3E0ED
:101ADD00FF9000041206EF900142E0FCA3E0FDA38D
:101AED00E0FEA3E0FF9000081206EF90000C120735
:101AFD00D8000000009000101207D80000000090E0
:101B0D0000141207D8000000009000181207D8002A
:101B1D0000000090001C1207D80000000090014644
:101B2D00E0FCA3E0FDA3E0FEA3E0FF900020120681
:101B3D00EF90014AE0FCA3E0FDA3E0FEA3E0FF90DF
:051B4D0000240206EF78
:10126600900198EBF0A3EAF0A3E9F090019FE0F873
:10127600A3E0F9A3E0FAA3E0FB120006900198E0D0
:10128600FBA3E0FAA3E0F990000C1206EFE92414A0
:10129600F9E43AFAC003C002C0011206859001982B
:1012A600E0FBA3E0FAA3E0F990000C12076B120032
:1012B6000AD001D002D0031206D5900198E0FBA314
:1012C600E0FAA3E0F99000141206A5E4FBFA79C847
:1012D60078421202A15015900198E0FBA3E0FAA310
:1012E600E0F99000141207D842C80000900198E077
:1012F600FBA3E0FAA3E0F99000141206A5E4FBFABA
:1013060079C878C21202A160174015900198E0FBD7
:10131600A3E0FAA3E0F99000141207D8C2C80000AF
:10132600900198E0FBA3E0FAA3E0F9900010120701
:101336006BC000C001C002C003900198E0FBA3E0AF
:10134600FAA3E0F990000C1206A5D003D002D00152
:10135600D000120006900198E0FBA3E0FAA3E0F9A2
:101366009000181206EF9000141206A590000412C1
:10137600076B1200FBC004C005C006C007900198A9
:10138600E0FBA3E0FAA3E0F990000C1206A5120711
:101396004B1200FBD003D002D001D00012000AC0CD
:1013A60004C005C006C007900198E0FBA3E0FAA3BD
:1013B600E0F99000181206A590000812076B1200BB
:1013C600FBD003D002D001D00012000A900198E0B1
:1013D600FBA3E0FAA3E0F990001C1206EF900024AC
:1013E6001206A590001C12076B1202A16019401785
:1013F600900198E0FBA3E0FAA3E0F990002412061E
:10140600A590001C1206EF900198E0FBA3E0FAA35A
:10141600E0F99000201206A590001C12076B12023C
:10142600A15017900198E0FBA3E0FAA3E0F9900021
:10143600201206A590001C1206EF900198E0FBA36F
:10144600E0FAA3E0F990000C1206A590001012062F
:07145600EF90001C0206A547
:101CFD0090000C1207D8000000009000101207D8B9
:101D0D00000000009000141207D8000000009000A1
:101D1D00181207D80000000090001C1207D8000010
:031D2D0000002291
:100003000203C4E86480F8E933E83360110460F064
:10001300ED33EC337009E8FCE9FDEAFEEBFF220463
:1000230060DED3EB9FEA9EE99DE8C2E78CF0C2F75E
:1000330095F0400CE8CCF8E9CDF9EACEFAEBCFFB2A
:1000430012038F85D0F05804700320D5B3E80470F1
:10005300075002B2D50203CE92D5EC0460F7E4CC8C
:10006300C0E0C398F8603B94186008400DD0E0FBF3
:100073000203A6E4FBFAC9FC8028E830E406E4C9DD
:10008300FBE4CAFCE830E305E4C9CACBFCE8540747
:100093006010F8C3E913F9EA13FAEB13FBEC13FC52
:1000A300D8F130F52FC3E49CFCEF9BFFEE9AFEEDF5
:1000B30099FDD0E0FBEF4E4D4C701222DB0302039F
:1000C300CBEC2CFCEF33FFEE33FEED33FDED30E7ED
:1000D300EB0203A6EF2BFFEE3AFEED39FDD0E0FB7A
:1000E30050130BBB00030203CEED13FDEE13FEEF23
:0800F30013FFEC13FC0203A64D
:1000FB00EC4D6011E8497017ED33EC3304600DE4FF
:10010B00FCFFFEFD22E933E8330470F80203C4124E
:10011B00038F58046009E4CC24815006285009024F
:10012B0003CE2840030203CBC0E0EB4A7044B980F6
:10013B0006D0E0FB0203BAEF4E701CBD8008EBFF4C
:10014B00EAFEE9FD80EBE98DF0A4FEE5F00201E4A7
:10015B00E9CDF9EAFEEBFFEF89F0A4FCE5F0CE89DF
:10016B00F0A42EFFE435F0CD89F0A42DFEE435F09C
:10017B008067EF4E7005BD80D780C3EF8BF0A4ACCA
:10018B00F0EE8BF0A42CFCE435F0F8EF8AF0A42C05
:10019B00E5F038FCE433CB8DF0A42CFCE5F03BF818
:1001AB00EE8AF0A42CFCE5F038F8E433CF89F0A408
:1001BB002CFCE5F038CF3400CE89F0A42FFFE5F00E
:1001CB003EFEE433C98DF0A42EFEE5F039CD8AF066
:1001DB00A42FFFE5F03EFEE43DFD33D0E0FB5007DE
:1001EB000BBB000F0203CEEC2CFCEF33FFEE33FE08
:0601FB00ED33FD0203A636
:100201000203CEEC5D046005E8590470030203C4E7
:1002110012038F580460F6EC4860F2EC7004FDFEA6
:10022100FF22C860DB2481C85009C39860025006D0
:100231000203CB9850CAF582E9294B4A7005AB827B
:100241000203BA75F0007C1A7880C3EF9BEE9AED39
:1002510099400DC3EF9BFFEE9AFEED99FDE842F048
:10026100DC23ACF0D0E0FFD0E0FED0E0FDAB82209B
:10027100E7101BEB60BAEC2CFCEF33FFEE33FEED25
:1002810033FD0203A6E803F830E705C0F075F0007E
:10029100EF2FFFEE33FEED33FD40B830E7C280AA09
:1002A10074F8CC6480CCC86480C8F58204604FC304
:1002B100EB9FF5F0EA9E42F0E99D42F0E89C45F0A3
:1002C100603C501DE5825FFFE582D313CB5BCBF42D
:1002D1002B5582FB50280ABA002409B90020088056
:1002E1001DE5825BFBE582D313CF5FCFF4C3132FF0
:1002F1005582FF50090EBE00050DBD00010CC3EB78
:100301009FF5F0EA9E42F0E99D42F0E89C45F060DD
:0903110007CC4820E701B3EC22FF
:10031A0075F020800E75F010800575F0087D007E5E
:10032A00007F003392D530D503120677EC334010A4
:10033A00EF33FFEE33FEED33FDEC33FCD5F0ED2267
:0E034A00E5F0247EA2D513CC92E7CDCEFF22A3
:10035800EDD2E7CD33EC3392D524814006E4FFFE9D
:10036800FDFC22FCE4CFCECDCC24E0501174FF80FC
:10037800EDC3CC13CCCD13CDCE13CECF13CF047099
:07038800F030D5DE0206771C
:1008BE00E508240AF582E43401F583E00508229068
:1008CE00010730070390010AE475F0011207FC02DC
:1008DE0005D82000E97F2ED2008018EF540F249007
:1008EE00D43440D4FF30040BEF24BFB41A005003AD
:1008FE002461FFE50960021509050CE50C7002057F
:10090E000B30070E900107E475F0011207FCEF02A1
:10091E00061E021DB77403D2078003E4C207F50852
:10092E00900107120813E4F509F50BF50CE50960C3
:10093E00077F2012090180F5750AFFC201C200C2AD
:10094E0002C203C205C206C2081208CDFF700D30E6
:10095E0007057F00120912AF0CAE0B22B4255FC241
:10096E00D5C2041208CDFF24D0B40A00501A75F077
:10097E000A780930D50508B6FF0106C6A426F6206A
:10098E00D5047002D20380D924CFB41A00EF5004DC
:10099E00C2E5D204020C04D20180C6D20080C0D2BD
:1009AE000280BCD2D580BAD20580B47F2012090154
:1009BE002002077401B5090040F11208BEFF1209AA
:1009CE000102093BD208D20680951208BEFB12081E
:1009DE00BEFA1208BEF94A4B700679027A0D7BFFF9
:1009EE0020022EE509602A7E008E82758300120594
:1009FE00F160060EEE650A70F0C2D5EBC0E0EAC0FB
:100A0E00E0E9C0E0EE120C65D0E0F9D0E0FAD0E0FB
:100A1E00FB1205D8FF60AAEBC0E0EAC0E0E9C0E037
:100A2E00120901D0E02401F9D0E03400FAD0E0FB45
:100A3E00E50A0460DCD50AD98087D20280A2120CA6
:100A4E004760F7E50A7001041203D9A90A600DE5A3
:100A5E000A600914F50A120CEFEF60F3EA30E702B0
:100A6E00F404C3995079EAF4250A0430E701E4044A
:100A7E00F50A800D120C4760C1EA050A250A120319
:100A8E00D9EA900136F030E701E4250A04D50A04CC
:100A9E0020050114120C65E4C0E0120CEF90013633
:100AAE00E0601320E70714F01208E9802204F0D06A
:100ABE00E014C0E07F001208E9E50A60071208E0C2
:100ACE00150A800B3005031208E0D0E002093BD076
:100ADE00E00480C4120C47609EE50A041203D9900C
:100AEE000136EAF0E50A2005026001042404120C26
:010AFE006592
:100AFF0074FF04C0E0120CEF1208E9E50A200502AA
:100B0F0060031208E0D0E0B50AE87F451208F390C1
:100B1F000136E07F2B30E7047F2DF404C0E012098B
:100B2F0001D0E075F00A84C0F01208EAD0E0120894
:100B3F00EA02093B791080027908C206C2088008D0
:100B4F00D2D5790A8004790AC2D5E50A047002F574
:100B5F000AE4FAFDFEFF1208BEFC7B082001131207
:100B6F0008BEFD7B1030000A1208BEFE1208BEFF41
:100B7F007B20EC3382D592D55013C3E43000069F0F
:100B8F00FFE49EFEE42001039DFDE49CFCE4CBF812
:100B9F00C201EC700CCFCECDCCE824F8F870F38006
:100BAF0017C3EF33FFEE33FEED33FDEC33FCEB33C6
:100BBF00FB994002FB0FD8E9EB300105F8D0E0C4F8
:100BCF0048B201C0E00AEC4D4E4F78207B0070C256
:100BDF00EAB50A0040BCC0E0120C67D0F0D0E020AC
:100BEF000104C4C0E0C4B201C0F01208EAD0F0D5CD
:100BFF00F0EB02093B12081C09D8530B435809A903
:100C0F004C09A5420B474F0B4F440B4F4909BE43AD
:100C1F000B55550A82460AE2450A4C470D225009E8
:100C2F00AD2D09B12E09D42B09B52309D2200D0BF7
:100C3F002A096D48000009CCE50AB4FF03750A06BE
:100C4F001208BEFC1208BEFD1208BEFE1208BEFF3F
:100C5F0090012F020416790AA2D52003143005093A
:100C6F00B910020404B9080104A2D52006025001EC
:100C7F00042002689202B509005034C0E07F203092
:100C8F0003197F30A20272067205500F120CBEC2FA
:100C9F0002C206C205C2087F30800F300503E9C0CB
:100CAF00E0120901300503D0E0F9D0E0B509CC30EE
:100CBF0005177F30B9100C1209017F583004077FD8
:100CCF00788003B908031209013002057F2D02094C
:100CDF00017F202008F87F2B2006F322920280CF7D
:100CEF007F00B40700500B242FF582E43401F58305
:100CFF00E0FF22286E756C6C2900D2011208BE30FD
:100D0F0001F8C201780930D50108F602096D2D509E
:100D1F004349581208BE2403B405004001E4900D66
:100D2F001D931208F2743A1208F2D20375090402E5
:020D3F000B4364
:101860000203C422EDA2E7D2E7F9EC3340F260F3C1
:10187000B4FF08ED547F70E80203CEF82481C2E083
:10188000C0E0F40428FAC313FCED92E7FD9001B523
:1018900012079BEEA2E7E9BA7F02C313340094005B
:1018A000FA75F091A4E5F013F494FE8AF0A433E500
:1018B000F033248CD313FDE492E7FE7F007C3F7568
:1018C0008302ECC0E0F8EDC0E0F9EEC0E0FAEFC052
:1018D000E0FB8583F09001B512071385F0831202B7
:1018E00004D0E0FBD0E0FAD0E0F9D0E0F812000A32
:1018F000ED6480FD30E7011CD583C7ED33CC33F8B0
:0C190000D0E0A2E71328C313CC13FD2293
:10190C009001AD12079B9001B1E0F8A3E0F9A3E0C0
:10191C00FAA3E0FB9001ADE0FCA3E0FDA3E0FEA385
:10192C00E0FF12020412147D9001AD12079B90018E
:10193C00B1E030E7599001ADE0FCA3E0FDA3E0FE7F
:10194C00A3E0FFECC0E0EDC0E0EEC0E0EFC0E0E4EF
:10195C00FFFEFDFC9001ADE0F8A3E0F9A3E0FAA3D3
:10196C00E0FB1202A17BDB600250087A0F79497808
:10197C004080067A0F794978C0D0E0FFD0E0FED0E5
:10198C00E0FDD0E0FC12000A9001AD12079B900123
:0D199C00ADE0FCA3E0FDA3E0FEA3E0FF2210
:10038F00E9D2E7C933E833F892D5EDD2E7CD33ECB4
:07039F0033FC5002B2D5222D
:1003A600EC30E7100FBF000C0EBE00080DBD0004B8
:1003B6000BEB6014A2D5EB13FCED92E7FD2274FF64
:1003C600FCFDFEFF22E480F8A2D574FF13FC7D80BD
:0303D600E480EFD1
:1003D900F920E73624F950037907E4F42402FBE510
:1003E90082158270021583DBF6E024FB501BE9605D
:1003F90014E4F0E582158270021583E004F0B40A72
:0D04090008E4F0D9EE7401F00A22C2D522F9
:10041600ED33EC3392D5FA602AB4FF33EDC2E77BB5
:10042600FF60067A04793BE4227A04794420D504F5
:100436007A04793F224E614E002B494E46002D49E3
:100446004E4600E47A08F0A3DAFC7B00740722C06B
:1004560083C082ECC0E0EDC0E0EEC0E0EFC0E0EAB1
:1004660075F010A4CAABF075F04DA42BFBE435F083
:10047600FCEA2410FAEB34C5FBEC34D9FCEDC2E7F8
:10048600FF75F056A4F42411C5F0F434C58FF0A41A
:100496002AE5F03BE43CF020E71412054BD0E0FFE0
:1004A600D0E0FED0E0FDD0E0FC1202048014F4049B
:1004B60012054BD0E0FFD0E0FED0E0FDD0E0FC120C
:1004C60000FBD082D083E0FAEDD2E7CD33EC3324C3
:1004D60082FBE4C3CF33CFCE33CECD33CD33DBF384
:1004E6007B0775F00A846004F0A31B0AE5F0F0A30D
:1004F6008FF0740AA4FFACF08EF0740AA42CFEAC44
:10050600F050010C8DF0740AA42CFDE435F0F0A334
:05051600DBDE7407228A
:10145D00BE1249253E4CCCCDBEAAAAAB3F800000A2
:10146D003E7ADBB03EED63383F24BC7D3F490FDB58
:10147D00ED33ECC2E7CC339209B4FF13ED547F602A
:10148D00030203C47FDB7E0F7DC97C3F021572C250
:10149D000AC3947F401E7007EDD2E794904015EF7C
:1014AD00FBEEFAEDF9ECF87F007E007D807C3F12BB
:1014BD000204D20AED33EC33248430E705E4C0E0B6
:1014CD00806B04FAEDD2E754F0C333DAFD540734E0
:1014DD00002323C0E0CCC0E0F8EDC0E0F9EEC0E0A1
:1014ED00FAEFC0E0FBE4120324EC24FEFC9001B9FA
:1014FD0012079B1200FB7B007A007980783F120067
:10150D000A9001B9E0B2E7CCF0A3E0CDF0A3E0CEB4
:10151D00F0A3E0CFF0D0E0FBD0E0FAD0E0F9D0E0DE
:10152D00F812000A9001B912072F1202049001B9A6
:10153D0012079B90145D740312058B9001B912076D
:10154D002F1200FBD0E0600F2469F582E43414F50E
:10155D008312073B12000A300A0B7BDB7A0F79C925
:10156D0078BF12000AED33EC336006ECA20992E766
:02157D00FC224E
:10051B003F8000004120000042C80000447A0000E8
:10052B00461C400047C35000497424004B1896806A
:10053B004CBEBC205A0E1BCA6753C21C749DC5AE61
:10054B00FB60065407601C2323120579EB543860BB
:10055B00091205651205741200FBECF8EDF9EEFAC1
:10056B00EFCB22EB12057480F1543803241C900559
:10057B001BFE93FC0EEE93FD0EEE930ECE93FF221D
:10058B00C0E0EFFBEEFAEDF9ECF81200FBD0E0F572
:10059B00F0EFFBEEFAEDF9ECF812071FA3A3A3A300
:1005AB00E8C0E0E9C0E0EAC0E0EBC0E0C0F0120058
:1005BB00FB12073BA3A3A3A312000AD0F0D0E0FBCE
:0D05CB00D0E0FAD0E0F9D0E0F8D5F0D4226D
:101A4D0002157FE493A3F8E493A34003F68001F21B
:101A5D0008DFF48029E493A3F85407240CC8C3339A
:101A6D00C4540F4420C8834004F456800146F6DF69
:101A7D00E4800B0102040810204080901D61E47E7B
:101A8D00019360BCA3FF543F30E509541FFEE4935E
:101A9D00A360010ECF54C025E060A840B8E493A325
:101AAD00FAE493A3F8E493A3C8C582C8CAC583CA50
:101ABD00F0A3C8C582C8CAC583CADFE9DEE780BE08
:011D8F000053
:1005D800BB010689828A83E0225002E722BBFE0221
:0905E800E32289828A83E4932254
:1005F100BB010CE58229F582E5833AF583E02250BF
:1006010006E92582F8E622BBFE06E92582F8E22208
:0D061100E58229F582E5833AF583E4932222
:10061E00BB010689828A83F0225002F722BBFE01BB
:02062E00F322B5
:10063000EF8DF0A4A8F0CF8CF0A428CE8DF0A42EDE
:02064000FE2298
:10064200A3F8E0C5F025F0F0E5821582700215836B
:06065200E0C838F0E822C8
:10065800BB010A89828A83F0E5F0A3F0225006F7ED
:0F06680009A7F01922BBFE06F3E5F009F31922EA
:0E067700C3E49FFFE49EFEE49DFDE49CFC2294
:10068500BB010789828A830207135005E9F802082E
:1006950042BBFE05E9F802084E89828A8302071FDC
:1006A500BB010DE58229F582E5833AF5830207133F
:1006B5005007E92582F8020842BBFE07E92582F8C2
:1006C50002084EE58229F582E5833AF58302071F84
:1006D500BB010789828A8302079B5005E9F8020856
:0A06E50074BBFE05E9F8020880224C
:1006EF00BB010DE58229F582E5833AF58302079B6D
:1006FF005007E92582F8020874BBFE07E92582F846
:04070F00020880223A
:0C071300E0FCA3E0FDA3E0FEA3E0FF2259
:10071F00E493FC740193FD740293FE740393FF2220
:0C072F00E0F8A3E0F9A3E0FAA3E0FB224D
:10073B00E493F8740193F9740293FA740393FB2214
:10074B00BB010789828A8302072F5005E9F802084B
:10075B005ABBFE05E9F802086789828A8302073BC8
:10076B00BB010DE58229F582E5833AF58302072F5C
:10077B005007E92582F802085ABBFE07E92582F8E3
:10078B00020867E58229F582E5833AF58302073B88
:0C079B00ECF0A3EDF0A3EEF0A3EFF022D1
:1007A700A8828583F0D083D0821207BE1207BE12BB
:1007B70007BE1207BEE473E493A3C583C5F0C583E0
:1007C700C8C582C8F0A3C583C5F0C583C8C582C89C
:0107D70022FF
:1007D800BB010DE58229F582E5833AF5830207A777
:1007E8005007E92582F802088CBBFE07E92582F844
:0407F8000208A5222C
:1007FC00F8E0FBA3A3E0F925F0F0E5821582700286
:07080C001583E0FA38F02229
:09081300EBF0A3EAF0A3E9F022E6
:10081C00D083D082F8E4937012740193700DA3A36B
:10082C0093F8740193F5828883E47374029368607F
:06083C00EFA3A3A380DF7F
:101DB700EFB40A07740D121DC2740A309811A8995E
:101DC700B8130CC2983098FDA899C298B811F6308C
:071DD70099FDC299F5992264
:0C084200E6FC08E6FD08E6FE08E6FF22E2
:0C084E00E2FC08E2FD08E2FE08E2FF22E6
:0D085A00E6FB08E6F908E6FA08E6CBF8220E
:0D086700E2FB08E2F908E2FA08E2CBF82211
:0C087400ECF608EDF608EEF608EFF622B0
:0C088000ECF208EDF208EEF208EFF222B4
:10088C00D083D082E493F608740193F60874029333
:09089C00F608740393F67404736A
:1008A500D083D082E493F208740193F20874029322
:0908B500F208740393F274047359
:00000001FF
